:020000040800F2
:1000000000000220D9280008C5250008C7250008DF
:10001000C9250008CB250008CD25000800000000F8
:10002000000000000000000000000000CF250008D4
:10003000D125000800000000D3250008D5250008C0
:100040002929000829290008292900082929000848
:100050002929000829290008292900082929000838
:100060002929000829290008292900082929000828
:100070002929000829290008292900082929000818
:100080002929000829290008DD2500082929000858
:1000900029290008292900082929000829290008F8
:1000A00029290008292900082929000829290008E8
:1000B00029290008292900082929000829290008D8
:1000C00029290008292900082929000829290008C8
:1000D00029290008ED2500082929000829290008F8
:1000E00029290008292900082929000829290008A8
:1000F0002929000829290008292900082929000898
:100100002929000829290008292900082929000887
:10011000292900082929000805260008292900089E
:100120001526000829290008252600082929000885
:100130002929000829290008292900082929000857
:100140002929000829290008292900082929000847
:10015000292900082929000835260008292900082E
:100160002929000829290008292900082929000827
:100170002929000829290008292900080000000071
:080180002929000829290008C3
:1001C00010B5054C237833B9044B13B10448AFF391
:1001D00000800123237010BDAC040020000000004B
:1001E000ECB8020808B5034B1BB103490348AFF351
:1001F000008008BD00000000B0040020ECB8020838
:1002000081F0004102E000BF83F0004330B54FEAC7
:1002100041044FEA430594EA050F08BF90EA020F34
:100220001FBF54EA000C55EA020C7FEA645C7FEAC7
:10023000655C00F0E2804FEA5454D4EB5555B8BFEA
:100240006D420CDD2C4480EA020281EA030382EA5B
:10025000000083EA010180EA020281EA0303362DED
:1002600088BF30BD11F0004F4FEA01314FF4801CC0
:100270004CEA113102D0404261EB410113F0004FD2
:100280004FEA03334CEA133302D0524263EB430389
:1002900094EA050F00F0A780A4F10104D5F1200E27
:1002A0000DDB02FA0EFC22FA05F2801841F1000182
:1002B00003FA0EF2801843FA05F359410EE0A5F156
:1002C00020050EF1200E012A03FA0EFC28BF4CF087
:1002D000020C43FA05F3C01851EBE37101F000453D
:1002E00007D54FF0000EDCF1000C7EEB00006EEB4A
:1002F0000101B1F5801F1BD3B1F5001F0CD34908D4
:100300005FEA30004FEA3C0C04F101044FEA44522A
:1003100012F5800F80F09A80BCF1004F08BF5FEAB1
:10032000500C50F1000041EB045141EA050130BD91
:100330005FEA4C0C404141EB0101013C28BFB1F5A3
:10034000801FE9D291F0000F04BF01460020B1FAEE
:1003500081F308BF2033A3F10B03B3F120020CDAC1
:100360000C3208DD02F1140CC2F10C0201FA0CF09F
:1003700021FA02F10CE002F11402D8BFC2F1200C04
:1003800001FA02F120FA0CFCDCBF41EA0C019040BA
:10039000E41AA2BF01EB0451294330BD6FEA040403
:1003A0001F3C1CDA0C340EDC04F11404C4F12002EE
:1003B00020FA04F001FA02F340EA030021FA04F300
:1003C00045EA030130BDC4F10C04C4F1200220FA57
:1003D00002F001FA04F340EA0300294630BD21FA95
:1003E00004F0294630BD94F0000F83F4801306BF5B
:1003F00081F480110134013D4EE77FEA645C18BF4F
:100400007FEA655C29D094EA050F08BF90EA020FE5
:1004100005D054EA000C04BF1946104630BD91EADD
:10042000030F1EBF0021002030BD5FEA545C05D1E0
:100430004000494128BF41F0004130BD14F580041F
:100440003CBF01F5801130BD01F0004545F0FE4193
:1004500041F470014FF0000030BD7FEA645C1ABFC8
:10046000194610467FEA655C1CBF0B46024650EAFF
:10047000013406BF52EA033591EA030F41F400212B
:1004800030BD00BF90F0000F04BF0021704730B5B1
:100490004FF4806404F132044FF000054FF0000186
:1004A00050E700BF90F0000F04BF0021704730B547
:1004B0004FF4806404F1320410F0004548BF40421C
:1004C0004FF000013EE700BF42004FEAE2014FEA71
:1004D00031014FEA02701FBF12F07F4393F07F4F4C
:1004E00081F06051704732F07F4208BF704793F04F
:1004F0007F4F04BF41F40021704730B54FF4607462
:1005000001F0004521F000411CE700BF50EA010264
:1005100008BF704730B54FF000050AE050EA01020D
:1005200008BF704730B511F0004502D5404261EB7D
:1005300041014FF4806404F132045FEA915C3FF4BE
:10054000D8AE4FF003025FEADC0C18BF03325FEA5B
:10055000DC0C18BF033202EBDC02C2F1200300FA0C
:1005600003FC20FA02F001FA03FE40EA0E0021FA31
:1005700002F11444BDE600BF4A0011D212F5001288
:1005800011D20DD56FF47873B3EB62520ED44FEAEB
:10059000C12343F0004343EA505323FA02F070476B
:1005A0004FF00000704750EA013002D14FF0FF30A9
:1005B00070474FF00000704753B94AB9002908BF8F
:1005C00000281CBF4FF0FF314FF0FF3001F0DEB8C4
:1005D000ADF1080C6DE904CE00F006F8DDF804E09A
:1005E000DDE9022304B070472DE9F047089D044679
:1005F0008E46002B4DD18A42944669D9B2FA82F2D6
:1006000052B101FA02F3C2F1200120FA01F10CFA11
:1006100002FC41EA030E94404FEA1C48210CBEFB49
:10062000F8F61FFA8CF708FB16E341EA034306FBD2
:1006300007F199420AD91CEB030306F1FF3080F061
:100640001F81994240F21C81023E63445B1AA4B2AE
:10065000B3FBF8F008FB103344EA034400FB07F750
:10066000A7420AD91CEB040400F1FF3380F00A8191
:10067000A74240F207816444023840EA0640E41B86
:1006800000261DB1D4400023C5E900433146BDE832
:10069000F0878B4209D9002D00F0EF800026C5E9D4
:1006A000000130463146BDE8F087B3FA83F6002EEC
:1006B0004AD18B4202D3824200F2F980841A61EB64
:1006C000030301209E46002DE0D0C5E9004EDDE782
:1006D00002B9FFDEB2FA82F2002A40F09280A1EB6A
:1006E0000C014FEA1C471FFA8CFE0126200CB1FBBF
:1006F000F7F307FB131140EA01410EFB03F08842B8
:1007000008D91CEB010103F1FF3802D2884200F244
:10071000CB804346091AA4B2B1FBF7F007FB1011D6
:1007200044EA01440EFB00FEA64508D91CEB040474
:1007300000F1FF3102D2A64500F2BB800846A4EBCF
:100740000E0440EA03409CE7C6F12007B34022FABA
:1007500007FC4CEA030C20FA07F401FA06F31C43E9
:10076000F9404FEA1C4900FA06F3B1FBF9F8200CF6
:100770001FFA8CFE09FB181140EA014108FB0EF03C
:10078000884202FA06F20BD91CEB010108F1FF3A8C
:1007900080F08880884240F28580A8F10208614498
:1007A000091AA4B2B1FBF9F009FB101144EA0141A6
:1007B00000FB0EFE8E4508D91CEB010100F1FF3451
:1007C0006CD28E456AD90238614440EA0840A0FBE9
:1007D0000294A1EB0E01A142C846A64656D353D0BF
:1007E0005DB1B3EB080261EB0E0101FA07F722FAE3
:1007F00006F3F1401F43C5E9007100263146BDE80C
:10080000F087C2F12003D8400CFA02FC21FA03F36E
:10081000914001434FEA1C471FFA8CFEB3FBF7F0EF
:1008200007FB10360B0C43EA064300FB0EF69E4214
:1008300004FA02F408D91CEB030300F1FF382FD2AD
:100840009E422DD9023863449B1B89B2B3FBF7F655
:1008500007FB163341EA034106FB0EF38B4208D92E
:100860001CEB010106F1FF3816D28B4214D9023E6F
:100870006144C91A46EA004638E72E46284605E78D
:100880000646E3E61846F8E64B45A9D2B9EB02085E
:1008900064EB0C0E0138A3E74646EAE7204694E7EE
:1008A0004046D1E7D0467BE7023B614432E7304621
:1008B00009E76444023842E703685A004CBF43F03A
:1008C000004323F000431844704700BF2DE9F8436C
:1008D00029B34F1E044615463E464FF0000808EB6C
:1008E000060101EBD171491004EBC1094846FFF73D
:1008F000E3FF0346C80008308F42204409D0AB42D2
:1009000009D8FFF7D9FF0138A8420AD201F101083E
:10091000E5E7AB4205D9884501D04E1EDFE74FF031
:1009200000094846BDE8F883012807D0022807D00F
:10093000044B00280CBF184600207047024870473F
:10094000024870470110000805100008091000084F
:1009500030B5234B83B004468D1E3BB301A9284616
:10096000AFF30080E8B101992A46FFF7AFFF0146D7
:10097000B8B1FFF7A1FF4B68A064012B2CD0002B6E
:1009800001F1040024DBFFF797FF0023C4E9130300
:100990000368002B11DBFFF78FFF2061002003B0FD
:1009A00030BD00230920236103B030BD0D4B0E493B
:1009B000C91AC91018460191D6E7C3F30360FFF7BF
:1009C000B3FF0028206114BF0020092003B030BD10
:1009D0000123C4E91303DBE7002323610520DEE7DD
:1009E0000000000024FF0208F4FF02080368DA0791
:1009F00010B5044606D49B0700F1480009D500F065
:100A00005BFC2368590709D51A070ED5DB0613D5F9
:100A100010BD00F049FC23685907F5D404F1D0005B
:100A200000F052FC23681A07F0D404F5A87000F017
:100A300053FC2368DB06EBD404F5E870BDE81040F6
:100A400000F08EBC092070470346006800B11844CE
:100A5000704700BF704700BF70B504460E46316C4A
:100A60002046FFF775FF054688B9326C626123693D
:100A700032462146012098470828F0D0072806D1A1
:100A80002846316CFFF7E6FF301D00F001FC2AF02C
:100A900095FD00BF2DE9F0470D1DD0F80C80D0F872
:100AA0001890074614460FCDADF5727D0DF10C0C74
:100AB000ACE80F000FCDACE80F000FCDACE80F0095
:100AC00095E80F0002AE4FF0000E8CE80F00C6F85C
:100AD00000E020E0336C7B614FF4F07231467AA87D
:100AE00000F056FE3B697AAA394650469847889BE3
:100AF00073642146CDE9006905463B463A4601202C
:100B0000C0470446E0B94FF4F0727AA9304600F0CD
:100B10003FFE082D1AD1316C3846FFF719FF093412
:100B20005FFA84FA05460028D4D0B36B73643A4662
:100B3000CDE900693B464AF010010120C04700B1F1
:100B4000092528460DF5727DBDE8F087072DF7D100
:100B50002046316CFFF77EFF03A800F099FB00BF31
:100B6000406C7047F0B5CB6B0B6401F1040C0E4682
:100B70000546BCE80F00F9B001AC0FC4BCE80F009B
:100B80000FC4BCE80F000FC49CE80F004FF0FF3704
:100B900084E80F00009706E02B696A4629469847CB
:100BA0000828044608D110992846FFF7D1FE0028EE
:100BB000F2D0092079B0F0BD6846FFF717FF062C88
:100BC000F7D131462846FFF747FF00BFC160D96B18
:100BD00082611964002219465CE700BF70B5C668DF
:100BE00043690B64AEB903690A4604460D460146E3
:100BF00002209847072805D008280FD1294620460B
:100C0000FFF72AFF3046296CFFF724FF281D00F06C
:100C10003FFB0122FFF73EFF2AF0D0FC2AF0CEFC7A
:100C2000C2681AB1CA6B0A64002233E79AE700BFB0
:100C3000704700BF836801460BB101201847704719
:100C4000012912D009D873B90F2A0CD800EB8202FF
:100C500018465368009A136070470339012994BFFE
:100C6000012002207047022070470846704700BFED
:100C700000B585B00A46002303A900911946FFF785
:100C8000DFFF039805B05DF804FB00BF012912D017
:100C900009D873B90F2A0CD800EB8200009A1268A9
:100CA0004260184670470339012994BF0120022091
:100CB0007047022070470846704700BF10B584B0E7
:100CC000002303AC039200940A461946FFF7DEFFA7
:100CD00004B010BD70B5D36B136402F1040C05466B
:100CE0000C46BCE80F00ADF50E7D0DF15C0EAEE8D4
:100CF0000F00BCE80F00AEE80F00BCE80F00AEE844
:100D00000F009CE80F004FF0FF368EE80F0016969C
:100D100010E0FFF7D3FF214616A8A847034616AAFE
:100D20006946082083B9049B9847052806460CD0DD
:100D3000092809D026996846FFF70AFE03466A4645
:100D40000C2116A8002BE4D0092616A8FFF74EFEAA
:100D500030460DF50E7D70BD2DE9F04FCC6C89B09D
:100D60001E4654F8043B06940D46174600F003084F
:100D7000002E79D01A0C1B0405938DF81D20022338
:100D8000D2B204EB82048DF81C302B6DB8F1020F47
:100D900008BFAC6B13F001030CD005A9384600F076
:100DA00079FB18B9082009B0BDE8F08F092009B017
:100DB000BDE8F08FD4F800A0BAF1000FEDD0019398
:100DC00000F008030293022E4AD0B4F800A0B4F851
:100DD00002900434AB6C29F0010B0F2138469B4480
:100DE000FFF746FF834539D82AF001039B4483452A
:100DF00094BF002001204FEA490303F002030AF0E8
:100E0000010A43EA0A03012B49D0022B32D0002BFE
:100E1000CCD1B8F1000F02D0002840F0CD800434CE
:100E2000D4F800A0BAF1000FCDD105A9384600F0E2
:100E300031FB0028BAD1019B002BB3D00F213846DB
:100E4000FFF716FF0E2102463846FFF737FF3846F8
:100E50006A4A0F21FFF732FF0720A8E70020CAE700
:100E6000D4F804900834B5E71B0205930323ADF8CA
:100E70001C308AE7236823F0004BB8F1000F45D1FE
:100E800028B1029A002A5CD0BBF1000F74D0002B6D
:100E900000DA04340BF1010B04EB8B04C0E7B8F16A
:100EA000000F19D1B0B163682268991C4FEAD27261
:100EB0003FF47CAF05F158010133049100F09080BC
:100EC000201DFFF7C1FD04AB01462846AFF30080AB
:100ED00000285BD10834A3E70D213846D5F82090CF
:100EE000FFF7C6FE8145F5D1AB6A9C42F2D12046A0
:100EF000FFF7E2FC0F2102463846FFF7DFFE3846D7
:100F00002A460021FFF7DAFE072050E70D21384678
:100F1000D5F82090FFF7ACFE814501D02368B6E7F5
:100F2000AB6A9C42FAD104230022C5E90B23E318E3
:100F3000C5F828B06B632368002B59DB01230193AC
:100F4000A8E705F15803CDF80C8004F1040AB04677
:100F500091461E460EE050460496FFF775FD0022AE
:100F6000014604AB284609F101090AF1040AAFF36E
:100F70000080E0B9D945EED10D213846FFF778FE63
:100F8000049BAC62C5E90803062010E781460D21E9
:100F90003846FFF76DFEB9F1020F286225D12B46C6
:100FA000049A43F82C2F6B62AC620620FFE646469B
:100FB0002368DDF80C806AE72046FFF77DFC0434E7
:100FC0000246AC6328461446AFF3008000283FF485
:100FD000EDAE384622460F21FFF770FE0720E6E609
:100FE0000D213846FFF744FE2862049B6B62DBE765
:100FF0000BF1010004EB80007AE700BF0000000065
:101000000023A9E60123A7E60223A5E62DE9F04384
:101010000646C3B015461C46042900F2BF80DFE82F
:1010200001F09E57BD2D0300002C40F0B780102A20
:1010300000F2B4800368D80600F1F98020AF38468A
:1010400000F098F9B46B394600234FF0010C0CFA0C
:1010500003F22A42204603F1010303D050F8042B87
:101060000A600446042B01F10401F0D13846B46350
:1010700000F076F9002043B0BDE8F083032C40F087
:101080008D8094B204EB1243102B4FEA124500F20C
:10109000858003681F0700F1D28020AF384600F03A
:1010A0003DF9B26B07EBC50154B10B46D01A01EB09
:1010B000C401E4001D5843F8045B8B42FAD122447A
:1010C0003846B26300F008F9002043B0BDE8F08371
:1010D000012C4FEA124895B25CD0052C5ED108EB8A
:1010E0000509B9F1200F59D8B8F10F0F79D9A946E0
:1010F000002D40F08A80B36B6DB320AF4FF0000934
:1011000007EBC807043F03EBC50553F8041B47F87A
:10111000041FAB42F9D1B9F1000F0FD06F46414621
:10112000102938BF102107EBC101843903EBC90531
:1011300053F8040B41F8040FAB42F9D1012C00F035
:101140008680B8F10F0FB56347D9B9F1000F02D00F
:10115000684600F0B9F8002043B0BDE8F083ECB970
:10116000806B23461FFA82FC0124371D04FA03F228
:1011700012EA0C0F014604D051F8042B47F8232043
:1011800008460133102BF1D115F40055E3D1B063BB
:10119000284604E008EB0503102B03D9022043B0D6
:1011A000BDE8F083B8F10F0FF8D83368DA0706D539
:1011B000304623F0030340F8483B00F079F820AFB5
:1011C000384600F075F8B36B002D97D11D460435F5
:1011D000B563384600F068F8BDE720A800F06CF869
:1011E000B3E7B9F1100F40D9A9F110093368D90755
:1011F00008D523F00103304643F0020340F8483B92
:1012000000F05EF8B9F1000F32D033685A0720D4ED
:10121000B8F10F0F25D96F463846C8F1100500F018
:1012200057F8002DB36B7FF77AAF20AF68E723F054
:101230001003336006F5E87000F09CF8FEE623F03A
:101240000803036000F5A87000F068F825E720AFF8
:10125000BDE7304623F0040340F8D03B00F038F8F7
:10126000D6E720A800F02CF8D5E74FF00009BDE73D
:10127000B8F10F0F3FF63FAF20AF384600F020F82F
:10128000B36B002D7FF43AAF384600F015F862E7F3
:1012900000F1340191E838009C46A6464CF8045D04
:1012A00090E8FF0FE54600BD90EC210B704700BFB2
:1012B00080EC210B704700BF90EC200B704700BF03
:1012C00080EC200B704700BFD0EC200B704700BFB4
:1012D000C0EC200B704700BFF0EC0201F0EC0211F3
:1012E000F0EC0221F0EC0231F0EC0241F0EC0251A2
:1012F000F0EC0261F0EC0271F0EC0281F0EC029192
:10130000F0EC02A1F0EC02B1F0EC02C1F0EC02D181
:10131000F0EC02E1F0EC02F1704700BFE0EC0201FA
:10132000E0EC0211E0EC0221E0EC0231E0EC0241E1
:10133000E0EC0251E0EC0261E0EC0271E0EC0281D1
:10134000E0EC0291E0EC02A1E0EC02B1E0EC02C1C1
:10135000E0EC02D1E0EC02E1E0EC02F1704700BF0A
:10136000B0FC0181B0FC0191B0FC01A1B0FC01B165
:10137000704700BFA0FC0181A0FC0191A0FC01A16D
:10138000A0FC01B1704700BFEC4600B52DE900504C
:101390002DE9FF1F4FF000032DE90C0001A9FFF715
:1013A000E1FBDDF840E012B0704700BFEC4600B54D
:1013B0002DE900502DE9FF1F4FF000032DE90C002F
:1013C00001A9FFF70BFCDDF840E012B0704700BF49
:1013D000EC4600B52DE900502DE9FF1F4FF000034A
:1013E0002DE90C0001A9FFF71BFCDDF840E012B06D
:1013F000704700BFEC4600B52DE900502DE9FF1FF6
:101400004FF000032DE90C0001ABFFF7DFFBDDF827
:1014100040E012B0704700BFEC4600B52DE9005027
:101420002DE9FF1F4FF000032DE90C0001AAFFF783
:1014300051FCDDF840E012B0704700BF027A03466D
:101440007AB9427AA2B14168013A10B4427208688E
:1014500003220C1D1A7202025C60000E10BC1A609E
:1014600070470068013A1A7202021A60000E704753
:10147000B020704700B585B0002303AA009219463A
:101480000C22FFF7DDFB039805B05DF804FB00BFFD
:10149000F0E700BF2DE9F043054685B00E464FF05A
:1014A00000083046FFF7CAFFB028044600F0BA80B3
:1014B000070620D500F0F003802B4DD0902B36D0BE
:1014C000A02B60D0B02B74D0C02B00F08B8000F02C
:1014D000F803D02B0BD100F007020132052342F4B0
:1014E000002201212846FFF791FD0028D9D00920CC
:1014F00005B0BDE8F0838300DBB21F1D0DF10C09C0
:1015000000231946CDF800900D222846FFF798FBDE
:10151000039BCDF8009060064CBFDF1BFF18002333
:101520000D22194628460397FFF7B0FBB9E700F0F4
:101530000D030D2BDBD003AF002300F00F02194683
:1015400000972846FFF77CFB002300970D221946E1
:101550002846FFF79BFBA4E73046FFF76FFF240206
:101560002043B0F5004FC2D004010023A2B21946B7
:101570002846FFF74BFD0028B9D114F4004F18BFDF
:101580004FF001088DE7C24302F007034FF47F627A
:101590001A41010702F47F624FF0000348BF42F492
:1015A000804219462846FFF731FD00283FF479AF05
:1015B0009DE7B1283BD0B22800F09380B32841D0FA
:1015C00000F0FC03B42B92D000F00702013201239B
:1015D00042F4002219462846FFF718FD00283FF480
:1015E00060AF84E7C6284AD0C72854D000F0F8037B
:1015F000C02B63D0C82868D0C9287FF478AF3046A4
:10160000FFF71CFF020300F00F0002F4702201300C
:101610000243012105232846FFF7F8FC00283FF488
:1016200040AF64E7B8F1000F18D0002060E7304603
:10163000FFF704FF024600283FF459AF10F0F00313
:10164000C8D054E73046FFF7F9FE020300F00F035D
:10165000013302F470221A430123BBE703AC434673
:101660000E22414600942846FFF7EAFA00944346CA
:101670000F2241462846FFF709FB404638E730462F
:10168000FFF7DCFE020300F00F03013302F47022C7
:101690001A4303239EE73046FFF7D0FE0246002898
:1016A0003FF425AF10F0F0037FF421AF042128466A
:1016B000FFF7ACFC00283FF4F4AE18E700F00F028F
:1016C0000132032342F4202284E73046FFF7B6FEBE
:1016D00000F0F00200F00F031032013343EA02324F
:1016E00097E700230DF10C090D221946CDF8009063
:1016F0002846FFF7A5FA3046FFF7A0FE02064FF096
:1017000002040CD5039B00F07F00A0401844039016
:101710003046FFF793FE030604F10704F2D4039B5F
:10172000CDF8009000F07F02A24003F501731A4447
:101730000023039219460D222846FFF7A7FAB0E6C8
:1017400010B5C26C536884B04FF0030C08321C0211
:1017500008461B0E01A9019402928DF80CC08DF869
:101760000D30FFF797FE04B010BD00BF08B5FFF7BE
:101770008FFE806C08BD00BF08B5FFF789FEC06C06
:10178000C379023300EB830008BD00BF704700BF80
:10179000844641EA000313F003036DD1403A41D37C
:1017A00051F8043B40F8043B51F8043B40F8043B3B
:1017B00051F8043B40F8043B51F8043B40F8043B2B
:1017C00051F8043B40F8043B51F8043B40F8043B1B
:1017D00051F8043B40F8043B51F8043B40F8043B0B
:1017E00051F8043B40F8043B51F8043B40F8043BFB
:1017F00051F8043B40F8043B51F8043B40F8043BEB
:1018000051F8043B40F8043B51F8043B40F8043BDA
:1018100051F8043B40F8043B51F8043B40F8043BCA
:10182000403ABDD2303211D351F8043B40F8043B6A
:1018300051F8043B40F8043B51F8043B40F8043BAA
:1018400051F8043B40F8043B103AEDD20C3205D37A
:1018500051F8043B40F8043B043AF9D2043208D072
:10186000D2071CBF11F8013B00F8013B01D30B88E4
:1018700003806046704700BF082A13D38B078DD0C2
:1018800010F003038AD0C3F10403D21ADB071CBF94
:1018900011F8013B00F8013B80D331F8023B20F8FE
:1018A000023B7BE7043AD9D3013A11F8013B00F837
:1018B000013BF9D20B7803704B7843708B788370BF
:1018C00060467047000000000000000000000000BB
:1018D0000000000000000000000000000000000008
:1018E000A2EB0300704700BF02780B78012A28BFE3
:1018F0009A42F5D16DE9044540EA0104CDE9026759
:101900006FF0000C4FEA447212B380EA010414F045
:10191000070F6AD100F0070420F0070004F0030568
:1019200021F007014FEAC505F0E8042314F0040F85
:10193000F1E804670CFA05F462EA040266EA0406B8
:101940000AD063EA0403624667EA0407664603E0D6
:10195000F0E80423F1E8046782FA4CF582EA060411
:10196000A4FA8CF46CBB83FA4CF583EA0705A5FA5C
:101970008CF595B950E9022351E9026782FA4CF5DA
:1019800082EA0604A4FA8CF483FA4CF583EA07058C
:10199000A5FA8CF52543DBD09CB92DBAB5FA85F4B0
:1019A00024F0070427FA04F1DDE9026723FA04F3BF
:1019B00003F0FF0001F0FF01FDE80445A0EB01008A
:1019C000704724BAB4FA84F424F0070426FA04F128
:1019D000DDE9026722FA04F202F0FF0001F0FF01E4
:1019E000FDE80445A0EB0100704714F0030F3CD163
:1019F00010F0030428D150F8082B51F8083B82FA64
:101A00004CF582EA0305A5FA8CF55DB950F8042C73
:101A100051F8043C82FA4CF582EA0305A5FA8CF5EC
:101A2000002DE8D02DBAB5FA85F424F0070423FA86
:101A300004F122FA04F202F0FF0001F0FF01FDE8D8
:101A40000445A0EB010070474FEAC40420F00300F6
:101A500050F8082B21F0030151F8083B0CFA04F46C
:101A600062EA040263EA0403C9E710F003041AD02F
:101A7000A1EB040120F00300E40750F8042B06D08A
:101A80000FD28B785FFAA2F4E41A06D12BB1CB788F
:101A90005FFAB2F4E41A00D11BB920465DF8104B8E
:101AA000704701F1040150F8042BCC0721F0030129
:101AB00051F8043B48D824D222F07F4482FA4CF5F6
:101AC00094EA1325A5FA8CF50AD165B951F8043BBF
:101AD00084EA0204B4EB036F0ED150F8042BEBE759
:101AE0004FEA132355E035F07F454DD10878FDE8E6
:101AF0000445C0F1000070474FEA126203F0FF0393
:101B000047E002EA1C4482FA4CF594EA1345A5FA30
:101B10008CF50AD165B951F8043B84EA0204B4EBB0
:101B2000034F0CD150F8042BEBE74FEA134330E09E
:101B300015EA1C4528D10B884FEA124229E04FEAEA
:101B4000124203EA1C4324E002F0FF0482FA4CF53F
:101B500094EA1365A5FA8CF50AD165B951F8043BEE
:101B600084EA0204B4EB032F09D150F8042BEBE70D
:101B70004FEA13630DE015F0FF0F05D10B684FEA34
:101B8000122223F07F4304E04FF00000FDE80445FB
:101B9000704712BA1BBA82FA4CF482EA0304A4FA20
:101BA0008CF5B5FA85F402FA04F203FA04F34FEA6D
:101BB0001260FDE80445A0EB1360704700000000D0
:101BC00090F800F06DE9024520F007016FF0000C7D
:101BD00010F0070491F820F040F049804FF0000425
:101BE0006FF00700D1E9002391F840F000F1080000
:101BF00082FA4CF2A4FA8CF283FA4CF3A2FA8CF338
:101C00004BBBD1E9022382FA4CF200F10800A4FA9E
:101C10008CF283FA4CF3A2FA8CF3E3B9D1E90423F2
:101C200082FA4CF200F10800A4FA8CF283FA4CF329
:101C3000A2FA8CF37BB9D1E9062301F1200182FAE3
:101C40004CF200F10800A4FA8CF283FA4CF3A2FAE9
:101C50008CF3002BC6D0002A04BF04301A4612BAF7
:101C6000B2FA82F2FDE8024500EBD2007047D1E9FA
:101C7000002304F00305C4F100004FEAC50514F089
:101C8000040F91F840F00CFA05F562EA05021CBF5A
:101C900063EA050362464FF00004A9E770B54FF010
:101CA000FF0C4CF4E06C1CEA11541DBF1CEA1355E8
:101CB00094EA0C0F95EA0C0F00F0DEF82C4481EA50
:101CC000030621EA4C5123EA4C5350EA013518BF70
:101CD00052EA033541F4801143F4801338D0A0FB5D
:101CE00002CE4FF00005E1FB02E506F00042E0FB0A
:101CF00003E54FF00006E1FB03569CF0000F18BF10
:101D00004EF0010EA4F1FF04B6F5007F64F54074B7
:101D100004D25FEA4E0E6D4146EB060642EAC6214A
:101D200041EA55514FEAC52040EA5E504FEACE2EB7
:101D3000B4F1FD0C88BFBCF5E06F1ED8BEF1004FBA
:101D400008BF5FEA500E50F1000041EB045170BD36
:101D500006F0004646EA010140EA020081EA03017A
:101D6000B4EB5C04C2BFD4EB0C0541EA045170BD76
:101D700041F480114FF0000E013C00F3AB8014F1F0
:101D8000360FDEBF002001F0004170BDC4F1000439
:101D9000203C35DA0C341BDC04F11404C4F12005BA
:101DA00000FA05F320FA04F001FA05F240EA020015
:101DB00001F0004221F0004110EBD37021FA04F64B
:101DC00042EB06015EEA430E08BF20EAD37070BD05
:101DD000C4F10C04C4F1200500FA04F320FA05F064
:101DE00001FA04F240EA020001F0004110EBD37066
:101DF00041F100015EEA430E08BF20EAD37070BDD6
:101E0000C4F1200500FA05F24EEA020E20FA04F3AE
:101E100001FA05F243EA020321FA04F001F000415D
:101E200021FA04F220EA020000EBD3705EEA430ECE
:101E300008BF20EAD37070BD94F0000F0FD101F0FD
:101E40000046400041EB010111F4801F08BF013C36
:101E5000F7D041EA060195F0000F18BF704703F074
:101E60000046520043EB030313F4801F08BF013DFB
:101E7000F7D043EA0603704794EA0C0F0CEA1355B7
:101E800018BF95EA0C0F0CD050EA410618BF52EA71
:101E90004306D1D181EA030101F000414FF0000077
:101EA00070BD50EA410606BF1046194652EA430685
:101EB00019D094EA0C0F02D150EA013613D195EAF9
:101EC0000C0F05D152EA03361CBF104619460AD141
:101ED00081EA030101F0004141F0FE4141F470014B
:101EE0004FF0000070BD41F0FE4141F4780170BD3B
:101EF00070B54FF0FF0C4CF4E06C1CEA11541DBFA0
:101F00001CEA135594EA0C0F95EA0C0F00F0A7F8A1
:101F1000A4EB050481EA030E52EA03354FEA0131CE
:101F200000F088804FEA03334FF0805545EA1313E1
:101F300043EA12634FEA022245EA111545EA1065A9
:101F40004FEA00260EF000419D4208BF964244F140
:101F5000FD0404F5407402D25B084FEA3202B61A5F
:101F600065EB03055B084FEA32024FF480104FF433
:101F7000002CB6EB020E75EB030E22BFB61A7546A7
:101F800040EA0C005B084FEA3202B6EB020E75EB3A
:101F9000030E22BFB61A754640EA5C005B084FEAA2
:101FA0003202B6EB020E75EB030E22BFB61A75466F
:101FB00040EA9C005B084FEA3202B6EB020E75EB7A
:101FC000030E22BFB61A754640EADC0055EA060E3B
:101FD00018D04FEA051545EA16754FEA06164FEA7E
:101FE000C30343EA52734FEAC2025FEA1C1CC0D12A
:101FF00011F4801F0BD141EA00014FF000004FF0B7
:10200000004CB6E711F4801F04BF01430020B4F177
:10201000FD0C88BFBCF5E06F3FF6AFAEB5EB030C2F
:1020200004BFB6EB020C5FEA500C50F1000041EB2C
:10203000045170BD0EF0004E4EEA113114EB5C04F9
:10204000C2BFD4EB0C0541EA045170BD41F48011CC
:102050004FF0000E013C90E645EA060E8DE60CEAD4
:10206000135594EA0C0F08BF95EA0C0F3FF43BAFF1
:1020700094EA0C0F0AD150EA01347FF434AF95EAA8
:102080000C0F7FF425AF104619462CE795EA0C0F8C
:1020900006D152EA03353FF4FDAE1046194622E759
:1020A00050EA410618BF52EA43067FF4C5AE50EA33
:1020B00041047FF40DAF52EA43057FF4EBAE12E723
:1020C000002301E000BF01338342FBD3704708B512
:1020D00000F07EFC08BD000000B585B00023009331
:1020E0000193029303931648164A0260436083608B
:1020F0000361037680F820304FF08052C2624FF0C7
:1021000000628262C3600123C36180F830304361A2
:1021100000F00CFD68B9062300930123019300230E
:1021200002936946064800F0D1FD28B905B05DF874
:1021300004FB00F0B3F9EEE700F0B0F9F6E700BFFA
:10214000C80400200020014030B589B0002303936B
:102150000493059306930793026803F1804303F504
:1021600090339A4201D009B030BD04460025019554
:1021700003F58C335A6C42F480725A645A6C02F440
:1021800080720192019A02951A6B42F001021A6361
:102190001B6B03F001030293029B40230393032371
:1021A000049303A9144801F0E7F81448144B0360A2
:1021B00045608560C5604FF4806303614FF4006340
:1021C00043614FF4005383614FF48073C361056230
:1021D000456200F01FFF58B9084BA3639C630022BF
:1021E0001146122000F052FE122000F087FEBAE7DE
:1021F00000F054F9F0E700BF000002401005002095
:102200001064024010B582B000240194114B1A6B87
:1022100042F480021A631B6B03F480030193019B59
:1022200022462146382000F031FE382000F066FEBC
:10223000224621463A2000F029FE3A2000F05EFEB8
:1022400022462146462000F021FE462000F056FEA0
:1022500002B010BD003802402DE9F04186B00023E5
:1022600001930293039304930593224B1B6813B1CC
:1022700006B0BDE8F0811F4B01221A6000260096CF
:102280001D4B9A6B42F001029A639B6B03F00103B2
:102290000093009B4FF48058CDF8048002270297EA
:1022A000032504950C24059401A9144801F064F851
:1022B0004FF680730193029703960495059401A944
:1022C0000F4801F059F84CF23373019302970396CB
:1022D0000495059401A90B4801F04EF8CDF804804F
:1022E000029703960495059401A9074801F044F864
:1022F000BEE700BF70050020003802400014024015
:1023000000100240000C02400018024010B58EB0D0
:1023100000230793089309930A930B930C930D934F
:1023200000930193029303930493059306931A4831
:102330004FF02042026002F5827242600622826003
:10234000C3600361102242618361C361036243621F
:102350004FF480518162C3624FF480410163436353
:10236000836343640F2307930893FF2109910A9322
:102370000B9211210C9108240094019309230293DC
:10238000049205916A4607A901F012FC08B90EB043
:1023900010BD00F083F8FAE77405002008B5FFF7D8
:1023A0005BFF08BDF0B58DB0002407940894099434
:1023B0000A940B940194304B1A6B42F020021A637A
:1023C0001A6B02F020020192019A02941A6B42F0F9
:1023D00001021A631A6B02F001020292029A03943C
:1023E0001A6B42F010021A631A6B02F01002039289
:1023F000039A04941A6B42F002021A631A6B02F0F9
:1024000002020492049A05941A6B42F008021A63BD
:102410001A6B02F008020592059A06941A6B42F0B4
:1024200040021A631B6B03F040030693069B134F95
:1024300022464FF4C061384601F090F8104D224614
:102440004FF40041284601F089F84FF4C063079328
:102450000126089609940A9407A9384600F08CFFD3
:102460004FF400430793089609940A9407A9284655
:1024700000F082FF0DB0F0BD0038024000140240B1
:102480000004024008B50268034B9A4200D008BD20
:1024900001201DF023FDFAE70010004072B6FEE7B0
:1024A00000B595B03022002108A829F0B9F8002322
:1024B000039304930593069307930193184A116CB1
:1024C00041F080511164126C02F080520192019A25
:1024D0000293144A116841F480411160126802F4B9
:1024E00080420292029A0222089201220B9210224A
:1024F0000C920E9308A801F037F868B90F230393E4
:102500000021049105910691079103A801F07AFA40
:1025100020B915B05DF804FBFFF7C0FFFFF7BEFF61
:10252000003802400070004000B58FB000210991D2
:102530000A910B910C910D910123ADF824300223E7
:10254000ADF826300323ADF828302422684629F060
:1025500067F80C4B00930C4B019300F00DFAFFF75A
:102560009FFFFFF71FFFFFF74DFE00F01BF9FFF77E
:10257000B3FD00F081F8FFF7C9FE00F0B5F828F0D0
:10258000E7FFFEE70AD7A33E85EB084282B00021B1
:1025900000910B4B5A6C42F480425A645A6C02F41C
:1025A00080420092009A01911A6C42F080521A64A3
:1025B0001B6C03F080530193019B02B0704700BF76
:1025C00000380240FEE7FEE7FEE7FEE7FEE7704761
:1025D0007047704708B500F0E9F908BD08B5024832
:1025E00000F0D2FA08BD00BFC804002008B50348B7
:1025F00028F0BEFF024801F04DFF08BD5406002040
:102600001407002008B5024801F031FB08BD00BFE7
:102610000C06002008B5024800F0C0FD08BD00BF50
:102620001005002008B5024800F0B8FD08BD00BF45
:102630005406002008B5024800F0B0FD08BD00BFF8
:10264000B40600200120704708B528F0BFFF16230C
:1026500003604FF0FF3008BD08B54FF0FF31FFF7C2
:10266000F3FFFEE7034AD2F8883043F47003C2F860
:102670008830704700ED00E000B587B0002302937A
:10268000039304930593009301931548154A026040
:102690005322426083600922C26003618023836108
:1026A00001F006FC98B94FF48053029302A90C483C
:1026B00001F037FC70B92023009300230193694691
:1026C000074801F0ADFC40B907B05DF804FBFFF727
:1026D000E5FEE8E7FFF7E2FEEDE7FFF7DFFEF3E7F1
:1026E000C40500200004004000B583B0002300931F
:1026F00001931048104A026053224260836040F206
:10270000E733C3608023836101F0D2FB58B92023F3
:102710000093002301936946064801F081FC28B923
:1027200003B05DF804FBFFF7B9FEF0E7FFF7B6FE74
:10273000F6E700BF0C0600200010004000B583B093
:102740000368154A934205D0144A93420FD003B050
:102750005DF804FB00230093114B1A6C42F0020257
:102760001A641B6C03F002030093009BEFE7002147
:1027700001910B4B1A6C42F010021A641B6C03F0AF
:1027800010030193019B0A46362000F07FFB3620A0
:1027900000F0B4FBDBE700BF000400400010004085
:1027A0000038024008B50A480A4B03604FF4E13391
:1027B000436000238360C36003610C224261836134
:1027C000C36101F06BFD00B908BDFFF767FEFBE7D1
:1027D000140700200010014030B589B00023039396
:1027E0000493059306930793026803F1804303F56E
:1027F00088339A4201D009B030BD044600250195C6
:1028000003F594335A6C42F010025A645A6C02F089
:1028100010020192019A02951A6B42F001021A63AA
:102820001B6B03F001030293029B4FF4C0630393FD
:1028300002230493032306930723079303A9214844
:1028400000F09AFD2048214B03604FF00063436085
:102850008560C5604FF480630361456185614FF415
:102860008073C3610562456200F0D4FB18BB164B50
:10287000A3639C631648174B03604FF000634360EB
:10288000402383600023C3604FF480620261436190
:102890008361C3610362436200F0BCFB70B90C4BFF
:1028A00063639C6300221146252000F0EFFA252087
:1028B00000F024FB9FE7FFF7F1FDD8E7FFF7EEFDFF
:1028C000EDE700BF000002405406002040640240D3
:1028D000B4060020B8640240DFF834D00D480E4939
:1028E0000E4A002302E0D458C4500433C4188C426A
:1028F000F9D30B4A0B4C002301E013600432A242CF
:10290000FBD3FFF7AFFE28F067FEFFF70DFE704721
:102910000000022000000020AC040020000003089A
:10292000AC04002080B10020FEE7000010B5044692
:102930000E4B18784FF47A73B3FBF0F30C4A10681F
:10294000B0FBF3F000F0E8FA68B90F2C01D90120D0
:102950000AE0002221464FF0FF3000F097FA054BC5
:102960001C60002000E0012010BD00BF040000201A
:10297000000000200800002008B50B4B1A6842F444
:1029800000721A601A6842F480621A601A6842F48F
:1029900080721A60032000F067FA0F20FFF7C6FF6D
:1029A000FFF7F4FD002008BD003C0240034A116817
:1029B000034B1B780B441360704700BF580700207F
:1029C00004000020014B1868704700BF5807002022
:1029D00038B50446FFF7F6FF0546B4F1FF3F02D0D5
:1029E000044B1B781C44FFF7EDFF401BA042FAD3B9
:1029F00038BD00BF040000204A4B5A6822F4403220
:102A00005A605A6841680A435A600268536823F45E
:102A10008073536002685368016943EA012353607D
:102A20000268536823F040735360026853688168FA
:102A30000B4353600268936823F400639360026859
:102A40009368C1680B439360826A374B9A4257D0B0
:102A50000268936823F07063936002689368816AE8
:102A60000B4393600268936823F0405393600268BD
:102A70009368C16A0B4393600268936823F0020372
:102A8000936002689368017E43EA4103936090F883
:102A90002030002B3FD00268536843F4006353603A
:102AA0000268536823F46043536001684B68426ACC
:102AB000013A43EA42334B600268D36A23F470035D
:102AC000D3620168CB6AC269013A43EA0253CB621E
:102AD0000268936823F4007393600268936890F827
:102AE000301043EA412393600268936823F48063C3
:102AF000936002689368416943EA81239360704759
:102B00000268936823F0706393600268936823F00F
:102B100040539360B0E70268536823F40063536046
:102B2000CAE700BF002301400100000F38B310B511
:102B30000446036C43B1236C13F0100F0BD001203B
:102B4000002384F83C3010BDFFF7FEFA00236364D5
:102B500084F83C30EFE7236C23F4885323F002031E
:102B600043F0020323642046FFF746FF0020606421
:102B7000236C23F0030343F001032364E0E7012007
:102B8000704770477047704770B5044603681E6809
:102B90005D6816F0020F2FD005F0200262B3026CC0
:102BA00012F0100F03D1026C42F4007202649A68B2
:102BB00012F0405F19D1227EBAB9DA6A12F4700FAE
:102BC00003D09A6812F4806F0FD15A6822F0200265
:102BD0005A60236C23F480732364236C13F4805FA6
:102BE00003D1236C43F0010323642046FFF7C9FFA0
:102BF00023686FF012021A6005F0800316F0040FCC
:102C000037D0002B35D0236C13F0100F03D1236C79
:102C100043F40053236423689A6812F4401F21D1BF
:102C20009A6B12F4401F03D09A6812F4806F19D186
:102C30005A6812F4806F15D19A6812F0405F11D172
:102C4000227E7AB95A6822F080025A60236C23F4FB
:102C500080532364236C13F4807F03D1236C43F0EF
:102C600001032364204600F0FDF823686FF00C0296
:102C70001A6005F0400316F0010F05D023B1236858
:102C80001B6813F0010F06D105F0806516F0200FC8
:102C900000D065B970BD236C43F4803323642046B3
:102CA000FFF770FF23686FF001021A60ECE7636CB6
:102CB00043F00203636423686FF020051D60204623
:102CC000FFF761FF23681D60E4E7000030B482B0C5
:102CD0000023019390F83C30012B00F0BB800123CE
:102CE00080F83C300B68092B41D90468E2689BB23C
:102CF00003EB43031E3B4FF0070C0CFA03F322EAED
:102D00000303E3600468E2680B8803EB43031E3BA4
:102D10008D6805FA03F31343E3604B68062B3DD837
:102D20000468626B03EB8303053B4FF01F0C0CFA46
:102D300003F322EA030363630468626B4B6803EBEB
:102D40008303053BB1F800C00CFA03F3134363633C
:102D50000268414B9A4251D002683F4B9A4256D08A
:102D6000002380F83C30184602B030BC704704683D
:102D700022699BB203EB43034FF0070C0CFA03F3F9
:102D800022EA03032361046822690B8803EB4303EF
:102D90008D6805FA03F313432361BEE70C2B16D8A5
:102DA00005682A6B03EB8303233B1F2404FA03F318
:102DB00022EA03032B6305682A6B4B6803EB83034A
:102DC000233B0C8804FA03F313432B63C0E7056825
:102DD000EA6A03EB8303413B1F2404FA03F322EA6C
:102DE0000303EB620568EA6A4B6803EB8303413B2C
:102DF0000C8804FA03F31343EB62A9E70B68122B68
:102E0000AAD1164A536843F480035360A4E70B68C1
:102E1000103B012BA4D8114A536843F400035360BC
:102E20000B68102B9CD10E4B1B6802F1467202F509
:102E30002E3202F28332A2FB03239B0C03EB8303AB
:102E40005B00019302E0019B013B0193019B002B7E
:102E5000F9D185E7022087E70020014000230140E7
:102E60000000002070470000074AD36823F4E063A5
:102E70001B041B0C000200F4E060034343F0BF633B
:102E800043F40033D360704700ED00E000B5194B08
:102E9000DB68C3F30223C3F1070CBCF1040F28BFA6
:102EA0004FF0040C03F1040EBEF1060F18D9033BDA
:102EB0004FF0FF3E0EFA0CFC21EA0C0199400EFA8D
:102EC00003F322EA0303194300280BDB0901C9B20B
:102ED00000F1604000F5614080F800135DF804FBEC
:102EE0000023E5E700F00F000901C9B2024B1954B5
:102EF000F4E700BF00ED00E014ED00E0002807DB80
:102F000000F01F02400901239340024A42F820309A
:102F1000704700BF00E100E00138B0F1807F0BD2C4
:102F20004FF0E0235861054AF02182F82310002079
:102F3000986107221A6170470120704700ED00E098
:102F400010B40368D9B210390C4AA2FB014212092D
:102F50000B4CA25CC2655F2909D923F47F7323F06F
:102F6000030304338365806D5DF8044B704723F4DD
:102F70007F7323F003038365F5E700BFABAAAAAA1A
:102F80003CB90208836A826992B9012B0AD0022BEC
:102F900002D00BB100207047C36A13F0807F28D1A4
:102FA00000207047C36AB3F1C07F24D0002070476F
:102FB000B2F5005F09D0022B25D9032B25D1C36AB6
:102FC00013F0807F23D100207047032B03D8DFE864
:102FD00003F01404140A00207047C36A13F0807FC2
:102FE0000DD100207047C36AB3F1C07F09D0002023
:102FF0007047012070470120704701207047012071
:103000007047012070470120704700207047012061
:103010007047000070B50446FFF7D4FC002C5BD06D
:103020000546022384F83530002384F834302268C2
:10303000136823F00103136023681A6812F0010F6C
:103040000AD0FFF7BFFC431B052BF5D9202363658E
:10305000032084F8350070BD1A682048104061686C
:10306000A2680A43E1680A4321690A4361690A4385
:10307000A1690A43E1690A43216A0A430243616A7A
:1030800004291ED01A602668756925F00705636A51
:103090001D43042B07D1A36A1D43E36A1BB12046DD
:1030A000FFF770FF90B975612046FFF749FFE26DA9
:1030B0003F239340836000206065012384F835300E
:1030C000C9E7E16A206B01430A43DBE740236365FC
:1030D000012084F83500BEE70120BCE73F8010F0F6
:1030E00070B50446866DFFF76DFC94F83530DBB2A1
:1030F000022B06D080236365002384F8343001203E
:1031000070BD05462268136823F016031360226819
:10311000536923F080035361236CE3B12268136881
:1031200023F0080313602268136823F0010313607F
:1031300023681B6813F0010F11D0FFF743FC431BFA
:10314000052BF5D920236365032084F8350000237F
:1031500084F83430D4E7A36C002BDFD1E3E7E26DD1
:103160003F239340B360012384F83530002084F876
:103170003400C5E790F83530DBB2022B03D0802352
:10318000436501207047052380F8353002681368D5
:1031900023F001031360002070470000F0B583B0F6
:1031A000044600230193724B1D68724BA3FB053547
:1031B000AD0A876D3E68C26D08239340334210D03C
:1031C00003681A6812F0040F0BD01A6822F0040288
:1031D0001A60C26D08239340BB60436D43F0010346
:1031E0004365E26D01239340334209D0226852695E
:1031F00012F0800F04D0BB60636D43F0020363657F
:10320000E26D04239340334209D02268126812F021
:10321000020F04D0BB60636D43F004036365E26D8D
:1032200010239340334224D02268126812F0080F12
:103230001FD0BB6023681A6812F4802F0DD01B6862
:1032400013F4002F04D1236C9BB12046984710E063
:10325000A36C73B1204698470BE01A6812F4807F84
:1032600003D11A6822F008021A60236C0BB12046C1
:103270009847E26D20239340334255D0226812686C
:1032800012F0100F50D0BB6094F83530DBB2052B34
:103290000ED023681A6812F4802F33D01B6813F401
:1032A000002F2AD1636C002B3ED0204698473BE08C
:1032B0002268136823F0160313602268536923F011
:1032C00080035361236CA3B12268136823F00803C1
:1032D0001360E26D3F239340BB60012384F83530D7
:1032E000002384F83430236D002B3FD020469847CC
:1032F0003CE0A36C002BE7D1EBE7E36BA3B12046E6
:10330000984711E01A6812F4807F09D11A6822F0F8
:1033100010021A60012384F83530002384F8343019
:10332000E36B0BB120469847636DFBB1636D13F0FF
:10333000010F17D0052384F835302268136823F075
:1033400001031360019B01330193AB4204D823684E
:103350001B6813F0010FF5D1012384F835300023E9
:1033600084F83430E36C0BB12046984703B0F0BDCD
:1033700000000020B5814E1B00230F2B00F2E480DB
:1033800070B582B060E085685E000324B44025EA31
:103390000405CC68B4402C438460456825EA0205E6
:1033A0004C68C4F300129A402A4342605AE0DC0899
:1033B000083450F8246003F0070295000F22AA4059
:1033C00026EA020E0A69AA4042EA0E0240F82420C8
:1033D0005CE0072200E0002202FA0EF22A430234E7
:1033E0005A4D45F824205A4A94686FEA0C0224EAA0
:1033F0000C054E6816F4801F01D04CEA0405544CAD
:10340000A560E46802EA04054E6816F4001F01D0C6
:103410004CEA04054E4CE560646802EA04054E6817
:1034200016F4003F01D04CEA0405494C656024685D
:1034300022404D6815F4803F01D04CEA0402444C10
:10344000226001330F2B7DD801229A400C6804EAD8
:10345000020C32EA0404F4D14C6804F00304013C89
:10346000012C90D94A6802F00302032A09D0C468EB
:103470005D000322AA4024EA02048A68AA4022438B
:10348000C2604A6802F00302022A90D004684FEA40
:10349000430E032202FA0EF224EA02044A6802F002
:1034A000030202FA0EF2224302604A6812F4403F1D
:1034B000C7D000220192274A546C44F480445464DB
:1034C000526C02F480420192019A9C08A51C1F4A8A
:1034D00052F8255003F003024FEA820E0F2202FA3F
:1034E0000EF225EA02051C4A90423FF474AF02F541
:1034F000806290421AD002F58062904218D002F5A4
:103500008062904216D002F58062904214D002F59B
:103510008062904212D002F58062904210D002F593
:10352000806290423FF455AF082255E7012253E7ED
:10353000022251E703224FE704224DE705224BE721
:10354000062249E702B070BD704700BF0038014055
:10355000003C014000380240000002400AB1816195
:103560007047090481617047002800F0E08170B560
:1035700082B00446036813F0010F3BD09F4B9B6859
:1035800003F00C03042B2CD09C4B9B6803F00C0322
:10359000082B21D06368B3F5803F4FD0B3F5A02F3F
:1035A00052D0964B1A6822F480321A601A6822F4BC
:1035B00080221A606368002B50D0FFF703FA05469B
:1035C0008E4B1B6813F4003F14D1FFF7FBF9401B2F
:1035D0006428F5D90320B1E1884B5B6813F4800FB0
:1035E000D8D0864B1B6813F4003F03D06368002BD0
:1035F00000F09F81236813F0020F54D07F4B9B682B
:1036000013F00C0F3ED07D4B9B6803F00C03082B8E
:1036100033D0E368002B68D0794B01221A60FFF7A2
:10362000D1F90546754B1B6813F0020F54D1FFF713
:10363000C9F9401B0228F5D903207FE16F4A1368BE
:1036400043F480331360B5E76C4B1A6842F4802270
:103650001A601A6842F480321A60ABE7FFF7B2F9D9
:103660000546664B1B6813F4003FC3D0FFF7AAF969
:10367000401B6428F5D9032060E1604B5B6813F4BC
:10368000800FC6D15D4B1B6813F0020F03D0E368B7
:10369000012B40F05081594A136823F0F803216947
:1036A00043EAC1031360236813F0080F42D0636933
:1036B0006BB3534B0122C3F8802EFFF783F9054605
:1036C0004E4B5B6F13F0020F34D1FFF77BF9401BB9
:1036D0000228F5D9032031E1484A136823F0F803A2
:1036E000216943EAC1031360DDE7454B00221A60FC
:1036F000FFF768F90546414B1B6813F0020FD2D063
:10370000FFF760F9401B0228F5D9032016E13C4B76
:103710000022C3F8802EFFF755F90546374B5B6F43
:1037200013F0020F06D0FFF74DF9401B0228F5D920
:10373000032003E1236813F0040F77D02F4B1B6C99
:1037400013F0805F33D1002301932C4B1A6C42F0AD
:1037500080521A641B6C03F080530193019B012576
:10376000284B1B6813F4807F23D0A368012B34D02F
:10377000052B38D0214B1A6F22F001021A671A6FFD
:1037800022F004021A67A368002B3DD0FFF71AF954
:1037900006461A4B1B6F13F0020F46D1FFF712F9C2
:1037A000801B41F288339842F3D90320C6E00025FC
:1037B000D6E7144A136843F480731360FFF702F9E5
:1037C0000646104B1B6813F4807FCED1FFF7FAF842
:1037D000801B0228F5D90320B0E0084A136F43F09C
:1037E00001031367CFE7054B1A6F42F004021A6713
:1037F0001A6F42F001021A67C5E700BF00380240A5
:103800000000474200700040FFF7DCF80646524BCC
:103810001B6F13F0020F08D0FFF7D4F8801B41F2A2
:1038200088339842F3D9032088E0EDB9A369002BCF
:1038300000F08380484A926802F00C02082A51D0B6
:10384000022B17D0454B00221A66FFF7BBF804463F
:10385000414B1B6813F0007F42D0FFF7B3F8001B09
:103860000228F5D9032069E03B4A136C23F080530A
:103870001364DBE7394B00221A66FFF7A3F805460D
:10388000354B1B6813F0007F06D0FFF79BF8401BF9
:103890000228F5D9032051E0E369226A1343626AE2
:1038A00043EA8213A26A5208013A43EA0243E26AF7
:1038B00043EA0263284A5360284B01221A66FFF745
:1038C00081F80446244B1B6813F0007F06D1FFF7F4
:1038D00079F8001B0228F5D903202FE000202DE005
:1038E00000202BE0012B2BD01B4B5B6803F48001E5
:1038F000E269914226D103F03F02216A8A4223D134
:10390000616A47F6C0721A40B2EB811F1ED103F400
:103910004031A26A5208013AB1EB024F18D103F0CC
:103920007063E26AB3EB026F14D1002006E001205D
:103930007047012002E0012000E0002002B070BDCD
:103940000120FBE70120F9E70120F7E70120F5E777
:103950000120F3E70120F1E7003802400000474270
:1039600008B5254B9B6803F00C03042B3FD0082BB4
:103970003FD1214B5A6802F03F025B6813F4800F7D
:1039800012D01D4B5968C1F388111C480023A1FBBC
:103990000001FCF711FE184B5B68C3F301430133D0
:1039A0005B00B0FBF3F025E0134B5968C1F3881CB2
:1039B0004FEA4C11B1EB0C006EEB0E0E4FEA8E137A
:1039C00043EA90638101091A63EB0E03DB0043EACB
:1039D0005173C90011EB0C0C43F100039902002351
:1039E0004FEA8C2041EA9C51FCF7E6FDD3E70348FF
:1039F00000E0034808BD00BF0038024040787D0168
:103A00000024F400002800F09B8070B50D460446A9
:103A10004F4B1B6803F007038B4208D2CBB24C4AD2
:103A20001370136803F007038B4240F08B80236808
:103A300013F0020F17D013F0040F04D0454A936817
:103A400043F4E0539360236813F0080F04D0414A15
:103A5000936843F4604393603E4A936823F0F00315
:103A6000A1680B439360236813F0010F32D06368A1
:103A7000012B21D09A1E012A25D9364A126812F04C
:103A8000020F61D033498A6822F0030213438B602E
:103A9000FEF798FF06462F4B9B6803F00C03626805
:103AA000B3EB820F16D0FEF78DFF801B41F28833F7
:103AB0009842F0D9032042E0264A126812F4003FEF
:103AC000E0D101203BE0234A126812F0007FD9D1F7
:103AD000012034E01E4B1B6803F00703AB4207D9FB
:103AE000EAB21B4B1A701B6803F00703AB422DD1DF
:103AF000236813F0040F06D0164A936823F4E053AA
:103B0000E1680B439360236813F0080F07D0114A54
:103B1000936823F46043216943EAC1039360FFF78C
:103B20001FFF0C4B9B68C3F303130B4AD35CD840B5
:103B30000A4B18600A4B1868FEF7F8FE002070BDAB
:103B4000012070470120FAE70120F8E70120F6E79D
:103B5000003C02400038024024B902080000002066
:103B600008000020014B1868704700BF00000020CB
:103B700008B5FFF7F7FF044B9B68C3F38223034AA2
:103B8000D35CD84008BD00BF0038024034B90208F9
:103B900008B5FFF7E7FF044B9B68C3F34233034AC2
:103BA000D35CD84008BD00BF0038024034B90208D9
:103BB00040B370B50E461546044690F84930E3B15F
:103BC000214651F8080B00F0A5FDA2683146206897
:103BD00000F0D6FD236BA2682946606800F0F2FD74
:103BE0002268A16852F8213043F0010342F82130E5
:103BF000012384F84930002070BD80F84830FEF77A
:103C0000CDFBDDE70120704710B4036A046A24F09D
:103C100001040462846924F0F00C4CEA021223F0DF
:103C20000A030B43826103625DF8044B704710B4D2
:103C3000046A24F0100404628469036A24F4704C5A
:103C40004CEA023223F0A00343EA011382610362CB
:103C50005DF8044B7047836823F070030B4343F017
:103C6000070383607047704770477047704710B50F
:103C7000044603681A6912F0020F11D0DA6812F0D4
:103C8000020F0DD06FF002021A610123037703685F
:103C90009B6913F0030F70D0FFF7E6FF0023237733
:103CA00023681A6912F0040F12D0DA6812F0040FB8
:103CB0000ED06FF004021A610223237723689B69F8
:103CC00013F4407F5FD02046FFF7CEFF0023237719
:103CD00023681A6912F0080F12D0DA6812F0080F80
:103CE0000ED06FF008021A61042323772368DB6982
:103CF00013F0030F4ED02046FFF7B6FF00232377C3
:103D000023681A6912F0100F12D0DA6812F0100F3F
:103D10000ED06FF010021A61082323772368DB6945
:103D200013F4407F3DD02046FFF79EFF002323770A
:103D300023681A6912F0010F03D0DA6812F0010F3C
:103D400036D123681A6912F0800F03D0DA6812F0B6
:103D5000800F34D123681A6912F0400F03D0DA685B
:103D600012F0400F32D123681A6912F0200F03D0ED
:103D7000DA6812F0200F30D110BDFFF774FF204633
:103D8000FFF773FF8AE72046FFF76DFF2046FFF736
:103D90006CFF9BE72046FFF766FF2046FFF765FFB5
:103DA000ACE72046FFF75FFF2046FFF75EFFBDE769
:103DB0006FF001021A612046FEF764FBC1E76FF065
:103DC00080021A61204600F072F9C3E76FF04002EA
:103DD0001A612046FFF74AFFC5E76FF020021A611B
:103DE000204600F063F9C7E70368304A904212D0DA
:103DF000B0F1804F0FD0A2F57C4290420BD002F57B
:103E00008062904207D002F58062904203D002F5B2
:103E10007842904203D123F070034A681343234A47
:103E200090422AD0B0F1804F27D0A2F57C42904238
:103E300023D002F5806290421FD002F5806290424A
:103E40001BD002F57842904217D002F57052904292
:103E500013D002F5806290420FD002F5806290424A
:103E60000BD0A2F59832904207D002F580629042C2
:103E700003D002F58062904203D123F44073CA68F4
:103E8000134323F080034A69134303608B68C362C2
:103E90000B688362054B984203D003F58063984218
:103EA00001D10B69036301234361704700000140A6
:103EB00040B310B5044690F83D30F3B1022384F8C6
:103EC0003D30214651F8040BFFF78EFF012384F8A3
:103ED000463084F83E3084F83F3084F8403084F82F
:103EE000413084F8423084F8433084F8443084F818
:103EF000453084F83D30002010BD80F83C30FEF79E
:103F00001DFCDBE70120704710B4846824F47F4C6B
:103F100042EA03220A4342EA0C0282605DF8044B43
:103F2000704790F83C30012B78D010B5044601233F
:103F300080F83C30022380F83D300268936823F417
:103F40007F4323F0770393600B68602B4CD029D814
:103F5000402B54D00CD9502B22D1CA684968006834
:103F6000FFF752FE50212068FFF775FE002005E0A4
:103F7000202B0DD009D9302B0AD00120012384F841
:103F80003D30002384F83C3010BD0BB1102B05D11F
:103F900019462068FFF75FFE0020EFE70120EDE7FC
:103FA0000120EBE7B3F5805F34D0B3F5005F0CD1AF
:103FB000CB684A6889680068FFF7A6FF22689368A3
:103FC00043F4804393600020D8E7702B24D1CB6862
:103FD0004A6889680068FFF797FF2268936843F092
:103FE000770393600020C9E7CA6849680068FFF753
:103FF0001EFE60212068FFF72EFE0020BEE7CA6883
:1040000049680068FFF700FE40212068FFF723FEA3
:104010000020B3E70020B1E70120AFE7022070479E
:1040200090F83C30012B3DD010B4012380F83C3097
:10403000022380F83D3003685A689C6822F0700CB7
:104040000A6842EA0C025A600368174A93421AD07F
:10405000B3F1804F17D0A2F57C42934213D002F502
:10406000806293420FD002F5806293420BD002F53A
:104070007842934207D002F57052934203D0A2F5E2
:104080009432934204D124F080044A6814439C6023
:10409000012380F83D30002380F83C3018465DF85D
:1040A000044B704702207047000001407047704782
:1040B000026802F10C0353E8003F23F0C0030C3206
:1040C00042E800310029F3D1202380F83D307047C9
:1040D000026802F10C0353E8003F23F490730C32A2
:1040E00042E800310029F3D1026802F1140353E8D9
:1040F000003F23F00103143242E800310029F3D1DC
:10410000036B012B05D0202380F83E30002303638E
:104110007047026802F10C0353E8003F23F01003DC
:104120000C3242E800310029F3D1ECE790F83D3041
:10413000DBB2212B01D0022070478368B3F5805F8A
:1041400017D0036A5A1C02621A7803685A60C38C3B
:104150009BB2013B9BB2C3844BB90268D36823F086
:104160008003D3600268D36843F04003D36000202B
:1041700070470369002BE4D1036A1B880268C3F30C
:1041800008035360036A02330362E0E738B504466C
:104190000268136923F44053C1680B4313618368B9
:1041A0000269134342691343C2691A430168CB6829
:1041B00023F4164323F00C031343CB6002685369C6
:1041C00023F4407381690B4353610368314A93427E
:1041D00006D002F58062934202D0FFF7C9FC01E0ED
:1041E000FFF7D6FCE369B3F5004F29D0002103188F
:1041F00049411B1841F10001C90041EA5371DB003C
:10420000181863684FEA83024FEA937341F1000183
:10421000FCF7D2F9204DA5FB00325109642303FBC2
:1042200011031B013233A5FB03235B0903F0F002EA
:1042300002EB011203F00F03216813448B6038BDB9
:104240000023021843EB0301121841F10001C900D9
:1042500041EA5271D200101841F1000162689218CF
:104260005B41FCF7A9F90C4DA5FB00325109642311
:1042700003FB1103DB003233A5FB03235B095A0068
:1042800002F4F87202EB011203F0070321681344F1
:104290008B60D4E7001001401F85EB5158B310B577
:1042A000044690F83D300BB3242384F83D30226857
:1042B000D36823F40053D3602046FFF767FF2268DA
:1042C000136923F4904313612268536923F02A038E
:1042D00053612268D36843F40053D3600020206404
:1042E000202384F83D3084F83E3010BD80F83C3007
:1042F000FEF772FAD8E70120704710B5044603684C
:104300005A6990F83D30DBB2212B0AD023685A69F4
:1043100002F0400294F83E30DBB2222B19D000208C
:1043200010BD02F08002002AF0D0226802F11403CE
:1043300053E8003F23F08003143242E800310029A3
:10434000F3D1606B08B1FEF7CBFE2046FFF7B0FE5D
:10435000DCE7002AE3D0226802F1140353E8003FAF
:1043600023F04003143242E800310029F3D1A06B5E
:1043700008B1FEF7B5FE2046FFF7AAFECFE770476B
:1043800008B50168CA6822F04002CA60202280F89D
:104390003D20FFF7F4FF002008BD7047704708B5C7
:1043A000806B0023C385C384FFF7F8FF08BD704707
:1043B00090F83E30DBB2222B67D18368B3F5805F83
:1043C0004DD0826AB3F5805F04D0002B54D10369CD
:1043D000002B51D103685B681370836A01338362D9
:1043E000C38D9BB2013B9BB2C385002B4FD100B55F
:1043F00083B00268D36823F02003D3600268D368D7
:1044000023F48073D3600268536923F0010353617E
:10441000202380F83E30036B012B33D1002303634C
:10442000026802F10C0353E8003F23F010030C3242
:1044300042E800310029F3D103681A6812F0100F26
:1044400006D0002201921A6801925B680193019BD9
:10445000818DFFF7ACFF002003B05DF804FB02691B
:10446000002AAED1826A03685B68C3F30803138035
:10447000836A02338362B3E703685B6803F07F03F8
:104480001370AAE7FFF789FFE5E7022070470020D5
:104490007047000030B583B0044602681368D068E6
:1044A000516913F00F0505D113F0200F02D010F061
:1044B000200F19D12DB111F0010119D110F4907F05
:1044C00016D1216B01297DD013F0800F03D010F09D
:1044D000800F40F0158113F0400F03D010F0400F13
:1044E00040F0128103B030BD2046FFF761FFF9E7CD
:1044F00013F0010F06D010F4807F03D0226C42F03D
:104500000102226413F0040F04D019B1226C42F0AE
:104510000202226413F0020F04D019B1226C42F09F
:104520000402226413F0080F07D010F0200F00D10E
:1045300019B1226C42F008022264226C002AD1D008
:1045400013F0200F02D010F0200F29D123685B69EF
:1045500003F04003226C12F0080F00D163B3204631
:10456000FFF7B6FD23685B6913F0400F20D0226887
:1045700002F1140353E8003F23F04003143242E8F1
:1045800000310029F3D1A36B73B1614A1A65A06BA6
:10459000FEF7F0FD0028A5D0A06B036D9847A1E7BA
:1045A0002046FFF705FFD1E72046FFF7F7FE99E722
:1045B0002046FFF7F3FE95E72046FFF7EFFE0023C6
:1045C00023648FE713F0100F3FF47EAF10F0100F4D
:1045D0003FF47AAF0023019313680193536801936A
:1045E000019B536913F0400F50D0A26B13685B68B6
:1045F0009BB2002B3FF476AFA18D99427FF672AF4C
:10460000E385D369B3F5807F37D0226802F10C03CC
:1046100053E8003F23F480730C3242E80031002954
:10462000F3D1226802F1140353E8003F23F00103A1
:10463000143242E800310029F3D1226802F1140358
:1046400053E8003F23F04003143242E800310029D0
:10465000F3D1202384F83E3000232363226802F143
:104660000C0353E8003F23F010030C3242E8003102
:104670000029F3D1A06BFEF733FDA18DE38D9BB232
:10468000C91A89B22046FFF792FE2BE7A18DE38D70
:104690009BB2C91A89B2E38D9BB2002B3FF422AFC3
:1046A00000293FF41FAF226802F10C0353E8003FDA
:1046B00023F490730C3242E800300028F3D12268D2
:1046C00002F1140353E8003F23F00103143242E8DF
:1046D00000300028F3D1202384F83E3000232363E8
:1046E000226802F10C0353E8003F23F010030C3260
:1046F00042E800300028F3D12046FFF758FEF1E6EB
:104700002046FFF713FDEDE62046FFF739FEE9E608
:104710009F43000810B40A6850F8223023F00103C8
:1047200040F822308B68082B25D000244A682243A9
:104730001343CA6813430A6913434A691343CA6996
:1047400013430A6A13434A6A13438A6A1343CA6AC1
:1047500013430A6B13438A691343CA6B13430968F3
:1047600050F82140054A22401A4340F821200020F9
:104770005DF8044B70474024D8E700BF8000F0FF8D
:1047800010B5013250F8223003F0404C0B684C68F1
:1047900043EA04138C6843EA0423CC6843EA0443E5
:1047A0000C6904F1FF3E43EA0E534C69A4F1020E7A
:1047B00043EA0E6389690B434CEA030340F8223055
:1047C000002010BDB3F5804F05D06FF0704340F866
:1047D00022300020704730B450F82230094C1C4081
:1047E0000B684D6843EA05138D6843EA05238D691C
:1047F0002B43C96843EA0143234340F82230002099
:1048000030BC70470000F0CF82B04FF0D843B3F80F
:1048100080309BB2ADF80630BDF8060080B202B021
:10482000704782B0ADF80600BDF806309BB2ADF817
:104830000630BDF806309BB24FF0D842A2F8803067
:1048400002B0704782B0ADF80600BDF806309BB2EA
:10485000ADF80630BDF806309BB24FF0D842A2F852
:104860007E3002B0704708B51120FFF7EBFF7820CB
:10487000FDF72DFC3620FFF7E5FF0020FFF7D1FF05
:104880003A20FFF7DFFF0520FFF7CBFFB220FFF74D
:10489000D9FF0C20FFF7C5FF0C20FFF7C2FF002057
:1048A000FFF7BFFF3320FFF7BCFF3320FFF7B9FF4F
:1048B000B720FFF7C7FF3520FFF7B3FFBB20FFF797
:1048C000C1FF3220FFF7ADFFC020FFF7BBFF0C2078
:1048D000FFF7A7FFC220FFF7B5FF0120FFF7A1FFF9
:1048E000C320FFF7AFFF1020FFF79BFFC420FFF7A7
:1048F000A9FF2020FFF795FFC620FFF7A3FF0F2099
:10490000FFF78FFFD020FFF79DFFA420FFF789FF5F
:10491000A120FFF786FFE020FFF794FFD020FFF7EC
:1049200080FF0020FFF77DFF0220FFF77AFF0720BE
:10493000FFF777FF0A20FFF774FF2820FFF771FFCA
:104940003220FFF76EFF4420FFF76BFF4220FFF796
:1049500068FF0620FFF765FF0E20FFF762FF1220B9
:10496000FFF75FFF1420FFF75CFF1720FFF759FFE9
:10497000E120FFF767FFD020FFF753FF0020FFF78C
:1049800050FF0220FFF74DFF0720FFF74AFF0A20E4
:10499000FFF747FF2820FFF744FF3120FFF741FFD3
:1049A0005420FFF73EFF4720FFF73BFF0E20FFF7A5
:1049B00038FF1C20FFF735FF1720FFF732FF1B20C1
:1049C000FFF72FFF1E20FFF72CFF2A20FFF73AFFEB
:1049D0000020FFF726FF0020FFF723FF0020FFF74E
:1049E00020FFEF20FFF71DFF2B20FFF72BFF0020FC
:1049F000FFF717FF0020FFF714FF0120FFF711FF5B
:104A00003F20FFF70EFF2920FFF71CFF08BD08B568
:104A1000CF20FFF717FF0020FFF703FFC120FFF7AC
:104A200000FF3020FFF7FDFEED20FFF70BFF6420B5
:104A3000FFF7F7FE0320FFF7F4FE1220FFF7F1FE69
:104A40008120FFF7EEFEE820FFF7FCFE8520FFF750
:104A5000E8FE1020FFF7E5FE7A20FFF7E2FECB200C
:104A6000FFF7F0FE3920FFF7DCFE2C20FFF7D9FE20
:104A70000020FFF7D6FE3420FFF7D3FE0220FFF719
:104A8000D0FEF720FFF7DEFE2020FFF7CAFEEA2067
:104A9000FFF7D8FE0020FFF7C4FE0020FFF7C1FE9D
:104AA000C020FFF7CFFE1B20FFF7BBFEC120FFF7A2
:104AB000C9FE0120FFF7B5FEC520FFF7C3FE302079
:104AC000FFF7AFFE3020FFF7ACFEC720FFF7BAFEBE
:104AD000B720FFF7A6FE3620FFF7B4FE4820FFF709
:104AE000A0FE3A20FFF7AEFE5520FFF79AFEB12058
:104AF000FFF7A8FE0020FFF794FE1A20FFF791FEB3
:104B0000B620FFF79FFE0A20FFF78BFEA220FFF7DB
:104B100088FEF220FFF796FE0020FFF782FE262097
:104B2000FFF790FE0120FFF77CFEE020FFF78AFEF2
:104B30000F20FFF776FE2A20FFF773FE2820FFF7ED
:104B400070FE0820FFF76DFE0E20FFF76AFE0820BA
:104B5000FFF767FE5420FFF764FEA920FFF761FE10
:104B60004320FFF75EFE0A20FFF75BFE0F20FFF7F2
:104B700058FE0020FFF755FE0020FFF752FE0020F0
:104B8000FFF74FFE0020FFF74CFEE120FFF75AFE33
:104B90000020FFF746FE1520FFF743FE1720FFF722
:104BA00040FE0720FFF73DFE1120FFF73AFE0620EA
:104BB000FFF737FE2B20FFF734FE5620FFF731FEBC
:104BC0003C20FFF72EFE0520FFF72BFE1020FFF7FD
:104BD00028FE0F20FFF725FE3F20FFF722FE3F2093
:104BE000FFF71FFE0F20FFF71CFE2B20FFF72AFE0A
:104BF0000020FFF716FE0020FFF713FE0120FFF74D
:104C000010FE3F20FFF70DFE2A20FFF71BFE0020BD
:104C1000FFF707FE0020FFF704FE0020FFF701FE6C
:104C2000EF20FFF7FEFD1120FFF70CFE7820FDF7C7
:104C30004EFA2920FFF706FE08BD08B5ED20FFF764
:104C400001FE0120FFF7EDFDFE20FFF7EAFDEE205B
:104C5000FFF7F8FDDE20FFF7E4FD2120FFF7E1FD7F
:104C6000F120FFF7EFFD0120FFF7DBFDDF20FFF76D
:104C7000E9FD1020FFF7D5FDC420FFF7E3FD8F20ED
:104C8000FFF7CFFDC620FFF7DDFD0020FFF7C9FDD0
:104C9000E220FFF7C6FDE220FFF7C3FDE220FFF7A9
:104CA000C0FDBF20FFF7CEFDAA20FFF7BAFDB02060
:104CB000FFF7C8FD0D20FFF7B4FD0020FFF7B1FDA1
:104CC0000D20FFF7AEFD0020FFF7ABFD1120FFF731
:104CD000A8FD0020FFF7A5FD1920FFF7A2FD002089
:104CE000FFF79FFD2120FFF79CFD0020FFF799FDB6
:104CF0002D20FFF796FD0020FFF793FD3D20FFF7E5
:104D000090FD0020FFF78DFD5D20FFF78AFD00205C
:104D1000FFF787FD5D20FFF784FD0020FFF781FD91
:104D2000B120FFF78FFD8020FFF77BFD0020FFF70C
:104D300078FD8B20FFF775FD0020FFF772FD9620B0
:104D4000FFF76FFD0020FFF76CFDB220FFF77AFD43
:104D50000020FFF766FD0020FFF763FD0220FFF74C
:104D600060FD0020FFF75DFD0320FFF75AFD0020E6
:104D7000FFF757FDB320FFF765FD0020FFF751FD5A
:104D80000020FFF74EFD0020FFF74BFD0020FFF74E
:104D900048FD0020FFF745FD0020FFF742FD002001
:104DA000FFF73FFD0020FFF73CFD0020FFF739FD36
:104DB0000020FFF736FD0020FFF733FD0020FFF74E
:104DC00030FD0020FFF72DFD0020FFF72AFD002019
:104DD000FFF727FD0020FFF724FD0020FFF721FD4E
:104DE0000020FFF71EFD0020FFF71BFD0020FFF74E
:104DF00018FD0020FFF715FD0020FFF712FD002031
:104E0000FFF70FFD0020FFF70CFDB420FFF71AFDA0
:104E10008B20FFF706FD0020FFF703FD9620FFF72C
:104E200000FD0020FFF7FDFCA120FFF7FAFC0020A9
:104E3000FFF7F7FCB520FFF705FD0220FFF7F1FCB7
:104E40000020FFF7EEFC0320FFF7EBFC0020FFF74C
:104E5000E8FC0420FFF7E5FC0020FFF7E2FCB620A9
:104E6000FFF7F0FC0020FFF7DCFC0020FFF7D9FC87
:104E7000B720FFF7E7FC0020FFF7D3FC0020FFF787
:104E8000D0FC3F20FFF7CDFC0020FFF7CAFC5E20DE
:104E9000FFF7C7FC0020FFF7C4FC6420FFF7C1FC4C
:104EA0000020FFF7BEFC8C20FFF7BBFC0020FFF7C3
:104EB000B8FCAC20FFF7B5FC0020FFF7B2FCDC200B
:104EC000FFF7AFFC0020FFF7ACFC7020FFF7A9FC58
:104ED0000020FFF7A6FC9020FFF7A3FC0020FFF7BF
:104EE000A0FCEB20FFF79DFC0020FFF79AFCDC20E4
:104EF000FFF797FC0020FFF794FCB820FFF7A2FC17
:104F00000020FFF78EFC0020FFF78BFC0020FFF74E
:104F100088FC0020FFF785FC0020FFF782FC0020C2
:104F2000FFF77FFC0020FFF77CFC0020FFF779FCF7
:104F3000BA20FFF787FC2420FFF773FC0020FFF75F
:104F400070FC0020FFF76DFC0020FFF76AFCC12019
:104F5000FFF778FC2020FFF764FC0020FFF761FCDE
:104F60005420FFF75EFC0020FFF75BFCFF20FFF7FB
:104F700058FC0020FFF755FCC220FFF763FC0A2015
:104F8000FFF74FFC0020FFF74CFC0420FFF749FC23
:104F90000020FFF746FCC320FFF754FC3C20FFF73E
:104FA00040FC0020FFF73DFC3A20FFF73AFC0020D0
:104FB000FFF737FC3920FFF734FC0020FFF731FC06
:104FC0003720FFF72EFC0020FFF72BFC3C20FFF7DB
:104FD00028FC0020FFF725FC3620FFF722FC0020EC
:104FE000FFF71FFC3220FFF71CFC0020FFF719FC25
:104FF0002F20FFF716FC0020FFF713FC2C20FFF7F3
:1050000010FC0020FFF70DFC2920FFF70AFC002010
:10501000FFF707FC2620FFF704FC0020FFF701FC48
:105020002420FFF7FEFB0020FFF7FBFB2420FFF707
:10503000F8FB0020FFF7F5FB2320FFF7F2FB002031
:10504000FFF7EFFB3C20FFF7ECFB0020FFF7E9FB4D
:105050003620FFF7E6FB0020FFF7E3FB3220FFF7E7
:10506000E0FB0020FFF7DDFB2F20FFF7DAFB00203D
:10507000FFF7D7FB2C20FFF7D4FB0020FFF7D1FB75
:105080002920FFF7CEFB0020FFF7CBFB2620FFF700
:10509000C8FB0020FFF7C5FB2420FFF7C2FB002060
:1050A000FFF7BFFB2420FFF7BCFB0020FFF7B9FB95
:1050B0002320FFF7B6FB0020FFF7B3FBC420FFF768
:1050C000C1FB6220FFF7ADFB0020FFF7AAFB052024
:1050D000FFF7A7FB0020FFF7A4FB8420FFF7A1FB4D
:1050E0000020FFF79EFBF020FFF79BFB0020FFF75F
:1050F00098FB1820FFF795FB0020FFF792FBA420F8
:10510000FFF78FFB0020FFF78CFB1820FFF789FBD0
:105110000020FFF786FB5020FFF783FB0020FFF7FE
:1051200080FB0C20FFF77DFB0020FFF77AFB1720A8
:10513000FFF777FB0020FFF774FB9520FFF771FB6B
:105140000020FFF76EFBF320FFF76BFB0020FFF75B
:1051500068FBE620FFF765FB0020FFF762FBC52038
:10516000FFF770FB3220FFF75CFB0020FFF759FBD5
:105170004420FFF756FB0020FFF753FB6520FFF7A5
:1051800050FB0020FFF74DFB7620FFF74AFB002085
:10519000FFF747FB8820FFF744FB0020FFF741FBA8
:1051A000C620FFF74FFB2020FFF73BFB0020FFF757
:1051B00038FB1720FFF735FB0020FFF732FB0120FB
:1051C000FFF72FFB0020FFF72CFBC720FFF73AFB70
:1051D0000020FFF726FB0020FFF723FB0020FFF74E
:1051E00020FB0020FFF71DFBC820FFF72BFB002052
:1051F000FFF717FB0020FFF714FB0020FFF711FB60
:105200000020FFF70EFBC920FFF71CFB0020FFF773
:1052100008FB0020FFF705FB0020FFF702FB002042
:10522000FFF7FFFA0020FFF7FCFA0020FFF7F9FA7A
:105230000020FFF7F6FA0020FFF7F3FA0020FFF74F
:10524000F0FA0020FFF7EDFA0020FFF7EAFA00205D
:10525000FFF7E7FA0020FFF7E4FA0020FFF7E1FA92
:105260000020FFF7DEFA0020FFF7DBFAE020FFF76F
:10527000E9FA1620FFF7D5FA0020FFF7D2FA1C2032
:10528000FFF7CFFA0020FFF7CCFA2120FFF7C9FA89
:105290000020FFF7C6FA3620FFF7C3FA0020FFF719
:1052A000C0FA4620FFF7BDFA0020FFF7BAFA5220F5
:1052B000FFF7B7FA0020FFF7B4FA6420FFF7B1FA5E
:1052C0000020FFF7AEFA7A20FFF7ABFA0020FFF7D5
:1052D000A8FA8B20FFF7A5FA0020FFF7A2FA992081
:1052E000FFF79FFA0020FFF79CFAA820FFF799FA32
:1052F0000020FFF796FAB920FFF793FA0020FFF796
:1053000090FAC420FFF78DFA0020FFF78AFACA202E
:10531000FFF787FA0020FFF784FAD220FFF781FA1F
:105320000020FFF77EFAD920FFF77BFA0020FFF775
:1053300078FAE020FFF775FA0020FFF772FAF32001
:10534000FFF76FFA0020FFF76CFAE120FFF77AFA17
:105350001620FFF766FA0020FFF763FA1C20FFF71C
:1053600060FA0020FFF75DFA2220FFF75AFA0020CA
:10537000FFF757FA3620FFF754FA0020FFF751FAEB
:105380004520FFF74EFA0020FFF74BFA5220FFF7B7
:1053900048FA0020FFF745FA6420FFF742FA0020A0
:1053A000FFF73FFA7A20FFF73CFA0020FFF739FABF
:1053B0008B20FFF736FA0020FFF733FA9920FFF72A
:1053C00030FA0020FFF72DFAA820FFF72AFA002074
:1053D000FFF727FAB920FFF724FA0020FFF721FA98
:1053E000C420FFF71EFA0020FFF71BFACA20FFF7C0
:1053F00018FA0020FFF715FAD220FFF712FA002062
:10540000FFF70FFAD820FFF70CFA0020FFF709FA90
:10541000E020FFF706FA0020FFF703FAF320FFF77A
:1054200000FA0020FFF7FDF9E220FFF70BFA052054
:10543000FFF7F7F90020FFF7F4F90B20FFF7F1F978
:105440000020FFF7EEF91B20FFF7EBF90020FFF734
:10545000E8F93420FFF7E5F90020FFF7E2F94420EE
:10546000FFF7DFF90020FFF7DCF94F20FFF7D9F94C
:105470000020FFF7D6F96120FFF7D3F90020FFF7EE
:10548000D0F97920FFF7CDF90020FFF7CAF988207D
:10549000FFF7C7F90020FFF7C4F99720FFF7C1F91C
:1054A0000020FFF7BEF9A620FFF7BBF90020FFF7A9
:1054B000B8F9B720FFF7B5F90020FFF7B2F9C2201D
:1054C000FFF7AFF90020FFF7ACF9C720FFF7A9F904
:1054D0000020FFF7A6F9D120FFF7A3F90020FFF77E
:1054E000A0F9D620FFF79DF90020FFF79AF9DD20FB
:1054F000FFF797F90020FFF794F9F320FFF791F9F0
:105500000020FFF78EF9E320FFF79CF90520FFF755
:1055100088F90020FFF785F90A20FFF782F90020BB
:10552000FFF77FF91C20FFF77CF90020FFF779F9DE
:105530003320FFF776F90020FFF773F94420FFF7D7
:1055400070F90020FFF76DF95020FFF76AF900208D
:10555000FFF767F96220FFF764F90020FFF761F9B0
:105560007820FFF75EF90020FFF75BF98820FFF74E
:1055700058F90020FFF755F99720FFF752F900205E
:10558000FFF74FF9A620FFF74CF90020FFF749F984
:10559000B720FFF746F90020FFF743F9C220FFF7D5
:1055A00040F90020FFF73DF9C720FFF73AF9002046
:1055B000FFF737F9D120FFF734F90020FFF731F971
:1055C000D520FFF72EF90020FFF72BF9DD20FFF79C
:1055D00028F90020FFF725F9F320FFF722F9002032
:1055E000FFF71FF9E420FFF72DF90120FFF719F964
:1055F0000020FFF716F90120FFF713F90020FFF74D
:1056000010F90220FFF70DF90020FFF70AF92A2010
:10561000FFF707F90020FFF704F93C20FFF701F935
:105620000020FFF7FEF84B20FFF7FBF80020FFF704
:10563000F8F85D20FFF7F5F80020FFF7F2F8742086
:10564000FFF7EFF80020FFF7ECF88420FFF7E9F808
:105650000020FFF7E6F89320FFF7E3F80020FFF7BC
:10566000E0F8A220FFF7DDF80020FFF7DAF8B3201A
:10567000FFF7D7F80020FFF7D4F8BE20FFF7D1F8E6
:105680000020FFF7CEF8C420FFF7CBF80020FFF78B
:10569000C8F8CD20FFF7C5F80020FFF7C2F8D320E7
:1056A000FFF7BFF80020FFF7BCF8DD20FFF7B9F8DF
:1056B0000020FFF7B6F8F320FFF7B3F80020FFF75C
:1056C000B0F8E520FFF7BEF80020FFF7AAF80020A9
:1056D000FFF7A7F80020FFF7A4F80020FFF7A1F8D4
:1056E0000220FFF79EF80020FFF79BF82920FFF724
:1056F00098F80020FFF795F83C20FFF792F800207B
:10570000FFF78FF84B20FFF78CF80020FFF789F8A0
:105710005D20FFF786F80020FFF783F87420FFF77D
:1057200080F80020FFF77DF88420FFF77AF800204A
:10573000FFF777F89320FFF774F80020FFF771F870
:10574000A220FFF76EF80020FFF76BF8B320FFF7F9
:1057500068F80020FFF765F8BE20FFF762F8002028
:10576000FFF75FF8C420FFF75CF80020FFF759F857
:10577000CD20FFF756F80020FFF753F8D320FFF7AE
:1057800050F80020FFF74DF8DC20FFF74AF8002022
:10579000FFF747F8F320FFF744F80020FFF741F840
:1057A000E620FFF74FF81120FFF73BF80020FFF746
:1057B00038F83420FFF735F80020FFF732F856208C
:1057C000FFF72FF80020FFF72CF87620FFF729F8D5
:1057D0000020FFF726F87720FFF723F80020FFF7D7
:1057E00020F86620FFF71DF80020FFF71AF8882040
:1057F000FFF717F80020FFF714F89920FFF711F8CA
:105800000020FFF70EF8BB20FFF70BF80020FFF792
:1058100008F89920FFF705F80020FFF702F8662046
:10582000FEF7FFFF0020FEF7FCFF5520FEF7F9FF13
:105830000020FEF7F6FF5520FEF7F3FF0020FEF7ED
:10584000F0FF4520FEF7EDFF0020FEF7EAFF4320C2
:10585000FEF7E7FF0020FEF7E4FF4420FEF7E1FF3C
:105860000020FEF7DEFFE720FEF7ECFF3220FEF718
:10587000D8FF0020FEF7D5FF5520FEF7D2FF00200D
:10588000FEF7CFFF7620FEF7CCFF0020FEF7C9FF22
:105890006620FEF7C6FF0020FEF7C3FF6720FEF775
:1058A000C0FF0020FEF7BDFF6720FEF7BAFF002013
:1058B000FEF7B7FF8720FEF7B4FF0020FEF7B1FF29
:1058C0009920FEF7AEFF0020FEF7ABFFBB20FEF7EE
:1058D000A8FF0020FEF7A5FF9920FEF7A2FF0020F9
:1058E000FEF79FFF7720FEF79CFF0020FEF799FF51
:1058F0004420FEF796FF0020FEF793FF5620FEF7A8
:1059000090FF0020FEF78DFF2320FEF78AFF002086
:10591000FEF787FF3320FEF784FF0020FEF781FFAC
:105920004520FEF77EFF0020FEF77BFFE820FEF714
:1059300089FF0020FEF775FF0020FEF772FF992017
:10594000FEF76FFF0020FEF76CFF8720FEF769FF70
:105950000020FEF766FF8820FEF763FF0020FEF7B9
:1059600060FF7720FEF75DFF0020FEF75AFF6620FC
:10597000FEF757FF0020FEF754FF8820FEF751FF87
:105980000020FEF74EFFAA20FEF74BFF0020FEF797
:1059900048FFBB20FEF745FF0020FEF742FF99209D
:1059A000FEF73FFF0020FEF73CFF6620FEF739FFC1
:1059B0000020FEF736FF5520FEF733FF0020FEF7EC
:1059C00030FF5520FEF72DFF0020FEF72AFF442070
:1059D000FEF727FF0020FEF724FF4420FEF721FFFB
:1059E0000020FEF71EFF5520FEF71BFF0020FEF7EC
:1059F00018FFE920FEF726FFAA20FEF712FF00207D
:105A0000FEF70FFF0020FEF70CFF0020FEF709FF56
:105A10000020FEF717FFAA20FEF703FFCF20FEF7B6
:105A200011FF0020FEF7FDFE0020FEF7FAFE002029
:105A3000FEF7F7FE0020FEF7F4FE0020FEF7F1FE71
:105A40000020FEF7EEFE0020FEF7EBFE0020FEF742
:105A5000E8FE0020FEF7E5FE0020FEF7E2FE002053
:105A6000FEF7DFFE0020FEF7DCFE0020FEF7D9FE89
:105A70000020FEF7D6FE0020FEF7D3FE0020FEF742
:105A8000D0FE0020FEF7CDFEF020FEF7DBFE00206A
:105A9000FEF7C7FE5020FEF7C4FE0020FEF7C1FE51
:105AA0000020FEF7BEFE0020FEF7BBFEF320FEF74F
:105AB000C9FE0020FEF7B5FEF920FEF7C3FE062062
:105AC000FEF7AFFE1020FEF7ACFE2920FEF7A9FE80
:105AD0000020FEF7A6FE3A20FEF7B4FE5520FEF7A2
:105AE000A0FE1120FEF7AEFE6420FCF7F0FA29209C
:105AF000FEF7A8FE3520FEF7A5FE0020FEF791FE7A
:105B00005120FEF79FFEFF20FEF78BFE5320FEF78D
